{
  "_format": "hh-sol-artifact-1",
  "contractName": "BorrowNFT",
  "sourceName": "contracts/BorrowNFT.sol",
  "abi": [
    {
      "inputs": [
        {
          "internalType": "address",
          "name": "tokenAddr",
          "type": "address"
        }
      ],
      "stateMutability": "nonpayable",
      "type": "constructor"
    },
    {
      "anonymous": false,
      "inputs": [
        {
          "indexed": true,
          "internalType": "address",
          "name": "owner",
          "type": "address"
        },
        {
          "indexed": true,
          "internalType": "address",
          "name": "approved",
          "type": "address"
        },
        {
          "indexed": true,
          "internalType": "uint256",
          "name": "tokenId",
          "type": "uint256"
        }
      ],
      "name": "Approval",
      "type": "event"
    },
    {
      "anonymous": false,
      "inputs": [
        {
          "indexed": true,
          "internalType": "address",
          "name": "owner",
          "type": "address"
        },
        {
          "indexed": true,
          "internalType": "address",
          "name": "operator",
          "type": "address"
        },
        {
          "indexed": false,
          "internalType": "bool",
          "name": "approved",
          "type": "bool"
        }
      ],
      "name": "ApprovalForAll",
      "type": "event"
    },
    {
      "anonymous": false,
      "inputs": [
        {
          "indexed": false,
          "internalType": "uint256",
          "name": "tokenId",
          "type": "uint256"
        },
        {
          "indexed": false,
          "internalType": "uint256",
          "name": "amount",
          "type": "uint256"
        }
      ],
      "name": "MintNFT",
      "type": "event"
    },
    {
      "anonymous": false,
      "inputs": [
        {
          "indexed": true,
          "internalType": "address",
          "name": "previousOwner",
          "type": "address"
        },
        {
          "indexed": true,
          "internalType": "address",
          "name": "newOwner",
          "type": "address"
        }
      ],
      "name": "OwnershipTransferred",
      "type": "event"
    },
    {
      "anonymous": false,
      "inputs": [
        {
          "indexed": true,
          "internalType": "address",
          "name": "from",
          "type": "address"
        },
        {
          "indexed": true,
          "internalType": "address",
          "name": "to",
          "type": "address"
        },
        {
          "indexed": true,
          "internalType": "uint256",
          "name": "tokenId",
          "type": "uint256"
        }
      ],
      "name": "Transfer",
      "type": "event"
    },
    {
      "inputs": [
        {
          "internalType": "address",
          "name": "to",
          "type": "address"
        },
        {
          "internalType": "uint256",
          "name": "tokenId",
          "type": "uint256"
        }
      ],
      "name": "approve",
      "outputs": [],
      "stateMutability": "nonpayable",
      "type": "function"
    },
    {
      "inputs": [
        {
          "internalType": "address",
          "name": "owner",
          "type": "address"
        }
      ],
      "name": "balanceOf",
      "outputs": [
        {
          "internalType": "uint256",
          "name": "",
          "type": "uint256"
        }
      ],
      "stateMutability": "view",
      "type": "function"
    },
    {
      "inputs": [
        {
          "internalType": "uint256",
          "name": "nftId",
          "type": "uint256"
        }
      ],
      "name": "borrowNFT",
      "outputs": [
        {
          "internalType": "uint256",
          "name": "",
          "type": "uint256"
        }
      ],
      "stateMutability": "nonpayable",
      "type": "function"
    },
    {
      "inputs": [],
      "name": "fetchMarketItems",
      "outputs": [
        {
          "components": [
            {
              "internalType": "uint256",
              "name": "tokenId",
              "type": "uint256"
            },
            {
              "internalType": "address",
              "name": "creator",
              "type": "address"
            },
            {
              "internalType": "address",
              "name": "borrower",
              "type": "address"
            },
            {
              "internalType": "string",
              "name": "tokenUri",
              "type": "string"
            },
            {
              "internalType": "uint256",
              "name": "tokenAmount",
              "type": "uint256"
            },
            {
              "internalType": "bool",
              "name": "borrowed",
              "type": "bool"
            }
          ],
          "internalType": "struct BorrowNFT.MarketItem[]",
          "name": "",
          "type": "tuple[]"
        }
      ],
      "stateMutability": "view",
      "type": "function"
    },
    {
      "inputs": [
        {
          "internalType": "address",
          "name": "from",
          "type": "address"
        }
      ],
      "name": "fetchMyNFT",
      "outputs": [
        {
          "components": [
            {
              "internalType": "uint256",
              "name": "tokenId",
              "type": "uint256"
            },
            {
              "internalType": "address",
              "name": "creator",
              "type": "address"
            },
            {
              "internalType": "address",
              "name": "borrower",
              "type": "address"
            },
            {
              "internalType": "string",
              "name": "tokenUri",
              "type": "string"
            },
            {
              "internalType": "uint256",
              "name": "tokenAmount",
              "type": "uint256"
            },
            {
              "internalType": "bool",
              "name": "borrowed",
              "type": "bool"
            }
          ],
          "internalType": "struct BorrowNFT.MarketItem[]",
          "name": "",
          "type": "tuple[]"
        }
      ],
      "stateMutability": "view",
      "type": "function"
    },
    {
      "inputs": [
        {
          "internalType": "uint256",
          "name": "tokenId",
          "type": "uint256"
        }
      ],
      "name": "getApproved",
      "outputs": [
        {
          "internalType": "address",
          "name": "",
          "type": "address"
        }
      ],
      "stateMutability": "view",
      "type": "function"
    },
    {
      "inputs": [],
      "name": "getContractName",
      "outputs": [
        {
          "internalType": "string",
          "name": "",
          "type": "string"
        }
      ],
      "stateMutability": "view",
      "type": "function"
    },
    {
      "inputs": [],
      "name": "getContractSymbol",
      "outputs": [
        {
          "internalType": "string",
          "name": "",
          "type": "string"
        }
      ],
      "stateMutability": "view",
      "type": "function"
    },
    {
      "inputs": [],
      "name": "getOwner",
      "outputs": [
        {
          "internalType": "address",
          "name": "",
          "type": "address"
        }
      ],
      "stateMutability": "view",
      "type": "function"
    },
    {
      "inputs": [
        {
          "internalType": "uint256",
          "name": "",
          "type": "uint256"
        }
      ],
      "name": "idToMarketItem",
      "outputs": [
        {
          "internalType": "uint256",
          "name": "tokenId",
          "type": "uint256"
        },
        {
          "internalType": "address",
          "name": "creator",
          "type": "address"
        },
        {
          "internalType": "address",
          "name": "borrower",
          "type": "address"
        },
        {
          "internalType": "string",
          "name": "tokenUri",
          "type": "string"
        },
        {
          "internalType": "uint256",
          "name": "tokenAmount",
          "type": "uint256"
        },
        {
          "internalType": "bool",
          "name": "borrowed",
          "type": "bool"
        }
      ],
      "stateMutability": "view",
      "type": "function"
    },
    {
      "inputs": [
        {
          "internalType": "address",
          "name": "owner",
          "type": "address"
        },
        {
          "internalType": "address",
          "name": "operator",
          "type": "address"
        }
      ],
      "name": "isApprovedForAll",
      "outputs": [
        {
          "internalType": "bool",
          "name": "",
          "type": "bool"
        }
      ],
      "stateMutability": "view",
      "type": "function"
    },
    {
      "inputs": [],
      "name": "maxSupply",
      "outputs": [
        {
          "internalType": "uint256",
          "name": "",
          "type": "uint256"
        }
      ],
      "stateMutability": "view",
      "type": "function"
    },
    {
      "inputs": [
        {
          "internalType": "string",
          "name": "tokenUri",
          "type": "string"
        },
        {
          "internalType": "uint256",
          "name": "amount",
          "type": "uint256"
        }
      ],
      "name": "mintNFT",
      "outputs": [
        {
          "internalType": "uint256",
          "name": "",
          "type": "uint256"
        }
      ],
      "stateMutability": "nonpayable",
      "type": "function"
    },
    {
      "inputs": [],
      "name": "name",
      "outputs": [
        {
          "internalType": "string",
          "name": "",
          "type": "string"
        }
      ],
      "stateMutability": "view",
      "type": "function"
    },
    {
      "inputs": [],
      "name": "owner",
      "outputs": [
        {
          "internalType": "address",
          "name": "",
          "type": "address"
        }
      ],
      "stateMutability": "view",
      "type": "function"
    },
    {
      "inputs": [
        {
          "internalType": "uint256",
          "name": "tokenId",
          "type": "uint256"
        }
      ],
      "name": "ownerOf",
      "outputs": [
        {
          "internalType": "address",
          "name": "",
          "type": "address"
        }
      ],
      "stateMutability": "view",
      "type": "function"
    },
    {
      "inputs": [
        {
          "internalType": "uint256",
          "name": "nftId",
          "type": "uint256"
        }
      ],
      "name": "rePayNFT",
      "outputs": [
        {
          "internalType": "uint256",
          "name": "",
          "type": "uint256"
        }
      ],
      "stateMutability": "nonpayable",
      "type": "function"
    },
    {
      "inputs": [],
      "name": "renounceOwnership",
      "outputs": [],
      "stateMutability": "nonpayable",
      "type": "function"
    },
    {
      "inputs": [
        {
          "internalType": "address",
          "name": "from",
          "type": "address"
        },
        {
          "internalType": "address",
          "name": "to",
          "type": "address"
        },
        {
          "internalType": "uint256",
          "name": "tokenId",
          "type": "uint256"
        }
      ],
      "name": "safeTransferFrom",
      "outputs": [],
      "stateMutability": "nonpayable",
      "type": "function"
    },
    {
      "inputs": [
        {
          "internalType": "address",
          "name": "from",
          "type": "address"
        },
        {
          "internalType": "address",
          "name": "to",
          "type": "address"
        },
        {
          "internalType": "uint256",
          "name": "tokenId",
          "type": "uint256"
        },
        {
          "internalType": "bytes",
          "name": "_data",
          "type": "bytes"
        }
      ],
      "name": "safeTransferFrom",
      "outputs": [],
      "stateMutability": "nonpayable",
      "type": "function"
    },
    {
      "inputs": [
        {
          "internalType": "address",
          "name": "operator",
          "type": "address"
        },
        {
          "internalType": "bool",
          "name": "approved",
          "type": "bool"
        }
      ],
      "name": "setApprovalForAll",
      "outputs": [],
      "stateMutability": "nonpayable",
      "type": "function"
    },
    {
      "inputs": [
        {
          "internalType": "uint256",
          "name": "amount",
          "type": "uint256"
        }
      ],
      "name": "setMaxSupply",
      "outputs": [],
      "stateMutability": "nonpayable",
      "type": "function"
    },
    {
      "inputs": [
        {
          "internalType": "bytes4",
          "name": "interfaceId",
          "type": "bytes4"
        }
      ],
      "name": "supportsInterface",
      "outputs": [
        {
          "internalType": "bool",
          "name": "",
          "type": "bool"
        }
      ],
      "stateMutability": "view",
      "type": "function"
    },
    {
      "inputs": [],
      "name": "symbol",
      "outputs": [
        {
          "internalType": "string",
          "name": "",
          "type": "string"
        }
      ],
      "stateMutability": "view",
      "type": "function"
    },
    {
      "inputs": [],
      "name": "testToken",
      "outputs": [
        {
          "internalType": "contract IERC20",
          "name": "",
          "type": "address"
        }
      ],
      "stateMutability": "view",
      "type": "function"
    },
    {
      "inputs": [
        {
          "internalType": "uint256",
          "name": "tokenId",
          "type": "uint256"
        }
      ],
      "name": "tokenBurn",
      "outputs": [],
      "stateMutability": "nonpayable",
      "type": "function"
    },
    {
      "inputs": [
        {
          "internalType": "uint256",
          "name": "tokenId",
          "type": "uint256"
        }
      ],
      "name": "tokenURI",
      "outputs": [
        {
          "internalType": "string",
          "name": "",
          "type": "string"
        }
      ],
      "stateMutability": "view",
      "type": "function"
    },
    {
      "inputs": [],
      "name": "totalSupply",
      "outputs": [
        {
          "internalType": "uint256",
          "name": "",
          "type": "uint256"
        }
      ],
      "stateMutability": "view",
      "type": "function"
    },
    {
      "inputs": [
        {
          "internalType": "address",
          "name": "from",
          "type": "address"
        },
        {
          "internalType": "address",
          "name": "to",
          "type": "address"
        },
        {
          "internalType": "uint256",
          "name": "tokenId",
          "type": "uint256"
        }
      ],
      "name": "transferFrom",
      "outputs": [],
      "stateMutability": "nonpayable",
      "type": "function"
    },
    {
      "inputs": [
        {
          "internalType": "address",
          "name": "newOwner",
          "type": "address"
        }
      ],
      "name": "transferOwner",
      "outputs": [],
      "stateMutability": "nonpayable",
      "type": "function"
    },
    {
      "inputs": [
        {
          "internalType": "address",
          "name": "newOwner",
          "type": "address"
        }
      ],
      "name": "transferOwnership",
      "outputs": [],
      "stateMutability": "nonpayable",
      "type": "function"
    }
  ],
  "bytecode": "0x6080604052614e20600e553480156200001757600080fd5b5060405162002d2c38038062002d2c8339810160408190526200003a9162000241565b6040805180820182526009815268109bdc9c9bddd3919560ba1b6020808301918252835180850190945260048452631093919560e21b90840152815191929162000087916000916200019b565b5080516200009d9060019060208401906200019b565b5050600160075550620000b03362000149565b600a80546001600160a01b0319163317905560408051808201909152600980825268109bdc9c9bddd3919560ba1b6020909201918252620000f491600b916200019b565b50604080518082019091526004808252631093919560e21b60209092019182526200012291600c916200019b565b50600d80546001600160a01b0319166001600160a01b0392909216919091179055620002ae565b600880546001600160a01b038381166001600160a01b0319831681179093556040519116919082907f8be0079c531659141344cd1fd0a4f28419497f9722a3daafe3b4186f6b6457e090600090a35050565b828054620001a99062000271565b90600052602060002090601f016020900481019282620001cd576000855562000218565b82601f10620001e857805160ff191683800117855562000218565b8280016001018555821562000218579182015b8281111562000218578251825591602001919060010190620001fb565b50620002269291506200022a565b5090565b5b808211156200022657600081556001016200022b565b60006020828403121562000253578081fd5b81516001600160a01b03811681146200026a578182fd5b9392505050565b600181811c908216806200028657607f821691505b60208210811415620002a857634e487b7160e01b600052602260045260246000fd5b50919050565b612a6e80620002be6000396000f3fe608060405234801561001057600080fd5b50600436106101755760003560e01c806301ffc9a71461017a57806306fdde03146101a2578063081812fc146101b7578063095ea7b3146101d75780630f08efe0146101ec57806318160ddd1461020157806321c111611461021757806323b872dd1461022a57806339451a881461023d57806342842e0e146102505780634fb2e45d14610263578063529062fa146102765780635afa3a72146102895780636352211e1461029c5780636895179d146102af5780636f8b44b0146102c257806370a08231146102d5578063715018a6146102e857806379e4a3da146102f0578063893d20e8146103035780638da5cb5b1461031457806395d89b411461031c578063a22cb46514610324578063b88d4fde14610337578063c87b56dd1461034a578063d5abeb011461035d578063e61a70c014610366578063e707144f1461038b578063e985e9c514610393578063f2fde38b146103a6578063f5f5ba72146103b9575b600080fd5b61018d61018836600461254f565b6103c1565b60405190151581526020015b60405180910390f35b6101aa610413565b60405161019991906127a8565b6101ca6101c53660046125dc565b6104a5565b6040516101999190612683565b6101ea6101e536600461250a565b610532565b005b6101f4610643565b60405161019991906126f8565b61020961081a565b604051908152602001610199565b6101f46102253660046123d5565b61082a565b6101ea610238366004612421565b610a6d565b6101ea61024b3660046125dc565b610a9e565b6101ea61025e366004612421565b610ad9565b6101ea6102713660046123d5565b610af4565b6102096102843660046125dc565b610b4e565b610209610297366004612587565b610d78565b6101ca6102aa3660046125dc565b6110f4565b600d546101ca906001600160a01b031681565b6101ea6102d03660046125dc565b61116b565b6102096102e33660046123d5565b61119f565b6101ea611226565b6102096102fe3660046125dc565b611261565b600a546001600160a01b03166101ca565b6101ca611500565b6101aa61150f565b6101ea6103323660046124d4565b61151e565b6101ea61034536600461245c565b61152d565b6101aa6103583660046125dc565b611565565b610209600e5481565b6103796103743660046125dc565b611570565b60405161019996959493929190612893565b6101aa61163f565b61018d6103a13660046123ef565b61164e565b6101ea6103b43660046123d5565b61167c565b6101aa611719565b60006001600160e01b031982166380ac58cd60e01b14806103f257506001600160e01b03198216635b5e139f60e01b145b8061040d57506301ffc9a760e01b6001600160e01b03198316145b92915050565b6060600080546104229061294e565b80601f016020809104026020016040519081016040528092919081815260200182805461044e9061294e565b801561049b5780601f106104705761010080835404028352916020019161049b565b820191906000526020600020905b81548152906001019060200180831161047e57829003601f168201915b5050505050905090565b60006104b082611728565b6105165760405162461bcd60e51b815260206004820152602c60248201527f4552433732313a20617070726f76656420717565727920666f72206e6f6e657860448201526b34b9ba32b73a103a37b5b2b760a11b60648201526084015b60405180910390fd5b506000908152600460205260409020546001600160a01b031690565b600061053d826110f4565b9050806001600160a01b0316836001600160a01b031614156105ab5760405162461bcd60e51b815260206004820152602160248201527f4552433732313a20617070726f76616c20746f2063757272656e74206f776e656044820152603960f91b606482015260840161050d565b336001600160a01b03821614806105c757506105c7813361164e565b6106345760405162461bcd60e51b815260206004820152603860248201527f4552433732313a20617070726f76652063616c6c6572206973206e6f74206f776044820152771b995c881b9bdc88185c1c1c9bdd995908199bdc88185b1b60421b606482015260840161050d565b61063e8383611745565b505050565b6060600061065060095490565b9050600080826001600160401b0381111561067b57634e487b7160e01b600052604160045260246000fd5b6040519080825280602002602001820160405280156106b457816020015b6106a1612241565b8152602001906001900390816106995790505b50905060005b83811161081257600081815260106020526040902060018101546001600160a01b0316156107ff576040805160c0810182528254815260018301546001600160a01b03908116602083015260028401541691810191909152600382018054839160608401916107289061294e565b80601f01602080910402602001604051908101604052809291908181526020018280546107549061294e565b80156107a15780601f10610776576101008083540402835291602001916107a1565b820191906000526020600020905b81548152906001019060200180831161078457829003601f168201915b50505091835250506004820154602082015260059091015460ff16151560409091015283518490869081106107e657634e487b7160e01b600052603260045260246000fd5b60209081029190910101526107fc6001856128df565b93505b508061080a81612983565b9150506106ba565b509392505050565b600061082560095490565b905090565b6060600061083760095490565b905060008060005b83811161088b576000818152601060205260409020600201546001600160a01b0387811691161415610879576108766001846128df565b92505b8061088381612983565b91505061083f565b506000826001600160401b038111156108b457634e487b7160e01b600052604160045260246000fd5b6040519080825280602002602001820160405280156108ed57816020015b6108da612241565b8152602001906001900390816108d25790505b50905060005b848111610a63576000818152601060205260409020600201546001600160a01b0388811691161415610a5157600081815260106020908152604091829020825160c0810184528154815260018201546001600160a01b0390811693820193909352600282015490921692820192909252600382018054839160608401916109799061294e565b80601f01602080910402602001604051908101604052809291908181526020018280546109a59061294e565b80156109f25780601f106109c7576101008083540402835291602001916109f2565b820191906000526020600020905b8154815290600101906020018083116109d557829003601f168201915b50505091835250506004820154602082015260059091015460ff1615156040909101528351849086908110610a3757634e487b7160e01b600052603260045260246000fd5b6020908102919091010152610a4d6001856128df565b9350505b80610a5b81612983565b9150506108f3565b5095945050505050565b610a7733826117b3565b610a935760405162461bcd60e51b815260040161050d90612842565b61063e83838361187d565b33610aa7611500565b6001600160a01b031614610acd5760405162461bcd60e51b815260040161050d9061280d565b610ad681611a07565b50565b61063e8383836040518060200160405280600081525061152d565b33610afd611500565b6001600160a01b031614610b235760405162461bcd60e51b815260040161050d9061280d565b610b2c8161167c565b600a80546001600160a01b0319166001600160a01b0392909216919091179055565b600081815260106020526040812060050154829060ff1615610bb25760405162461bcd60e51b815260206004820152601f60248201527f4f7468657220616c726561647920626f72726f7765642074686973206e667400604482015260640161050d565b60008381526010602052604090819020600490810154600d5492516370a0823160e01b815290926001600160a01b0316916370a0823191610bf591309101612683565b60206040518083038186803b158015610c0d57600080fd5b505afa158015610c21573d6000803e3d6000fd5b505050506040513d601f19601f82011682018060405250810190610c4591906125f4565b1015610cab5760405162461bcd60e51b815260206004820152602f60248201527f706f6f6c20646f6e2774206861766520656e6f75676820746f6b656e2062616c60448201526e616e636520746f206c656e64696e6760881b606482015260840161050d565b600083815260106020526040908190206002810180546001600160a01b0319163390811790915560058201805460ff19166001179055600d54600480840154945163a9059cbb60e01b815290810192909252602482019390935290916001600160a01b03169063a9059cbb90604401602060405180830381600087803b158015610d3457600080fd5b505af1158015610d48573d6000803e3d6000fd5b505050506040513d601f19601f82011682018060405250810190610d6c9190612533565b50839250505b50919050565b6000600e54610d8660095490565b1115610dd05760405162461bcd60e51b815260206004820152601960248201527843616e2774206d696e74206f766572206d6178537570706c7960381b604482015260640161050d565b60008211610e145760405162461bcd60e51b81526020600482015260116024820152700616d6f756e742073686f756c64203e203607c1b604482015260640161050d565b600d546040516370a0823160e01b815283916001600160a01b0316906370a0823190610e44903390600401612683565b60206040518083038186803b158015610e5c57600080fd5b505afa158015610e70573d6000803e3d6000fd5b505050506040513d601f19601f82011682018060405250810190610e9491906125f4565b1015610eee5760405162461bcd60e51b8152602060048201526024808201527f5573657220646f6e2774206861766520656e6f75676820746f6b656e20746f206044820152631b5a5b9d60e21b606482015260840161050d565b601183604051610efe9190612638565b9081526040519081900360200190205460ff1615610f6a5760405162461bcd60e51b815260206004820152602360248201527f73616d6520746f6b656e557269286e6674292063616e2774206d696e7420616760448201526230b4b760e91b606482015260840161050d565b6000610f7560095490565b9050610f813382611a10565b610f8b8185611b30565b60008181526010602090815260409091208281556001810180546001600160a01b03199081163317909155600282018054909116905585519091610fd6916003840191880190612275565b506004810184905560058101805460ff19169055604051600190601190610ffe908890612638565b908152604051908190036020019020805491151560ff1990921691909117905561102c600980546001019055565b600d546040516323b872dd60e01b81526001600160a01b03909116906323b872dd9061106090339030908990600401612697565b602060405180830381600087803b15801561107a57600080fd5b505af115801561108e573d6000803e3d6000fd5b505050506040513d601f19601f820116820180604052508101906110b29190612533565b5060408051838152602081018690527f447679b4c11c8456cd2dce1fa6e10dba6cba3d88caa80cfe8ea433960dfa053f910160405180910390a1509392505050565b6000818152600260205260408120546001600160a01b03168061040d5760405162461bcd60e51b815260206004820152602960248201527f4552433732313a206f776e657220717565727920666f72206e6f6e657869737460448201526832b73a103a37b5b2b760b91b606482015260840161050d565b33611174611500565b6001600160a01b03161461119a5760405162461bcd60e51b815260040161050d9061280d565b600e55565b60006001600160a01b03821661120a5760405162461bcd60e51b815260206004820152602a60248201527f4552433732313a2062616c616e636520717565727920666f7220746865207a65604482015269726f206164647265737360b01b606482015260840161050d565b506001600160a01b031660009081526003602052604090205490565b3361122f611500565b6001600160a01b0316146112555760405162461bcd60e51b815260040161050d9061280d565b61125f6000611bbb565b565b600081815260106020526040812060050154829060ff166112c35760405162461bcd60e51b815260206004820152601c60248201527b151a1a5cc81b999d081a5cc81b9bdd08189bdc9c9bddd959081e595d60221b604482015260640161050d565b60008381526010602052604090206002015483906001600160a01b0316331461133a5760405162461bcd60e51b815260206004820152602360248201527f4f6e6c7920626f72726f776572206f662074686973206e66742063616e20726560448201526270617960e81b606482015260840161050d565b60008481526010602052604090819020600490810154600d5492516370a0823160e01b815290926001600160a01b0316916370a082319161137d91339101612683565b60206040518083038186803b15801561139557600080fd5b505afa1580156113a9573d6000803e3d6000fd5b505050506040513d601f19601f820116820180604052508101906113cd91906125f4565b101561143e5760405162461bcd60e51b815260206004820152603a60248201527f7265506179657220646f6e2774206861766520656e6f7567682062616c616e6360448201527919481d1bc81c995c185e481a5b881d1a1a595c881dd85b1b195d60321b606482015260840161050d565b600084815260106020526040908190206002810180546001600160a01b031916905560058101805460ff19169055600d5460048083015493516323b872dd60e01b815292936001600160a01b03909216926323b872dd926114a492339230929101612697565b602060405180830381600087803b1580156114be57600080fd5b505af11580156114d2573d6000803e3d6000fd5b505050506040513d601f19601f820116820180604052508101906114f69190612533565b5093949350505050565b6008546001600160a01b031690565b6060600180546104229061294e565b611529338383611c0d565b5050565b61153733836117b3565b6115535760405162461bcd60e51b815260040161050d90612842565b61155f84848484611cd8565b50505050565b606061040d82611d0b565b601060205260009081526040902080546001820154600283015460038401805493946001600160a01b039384169493909216926115ac9061294e565b80601f01602080910402602001604051908101604052809291908181526020018280546115d89061294e565b80156116255780601f106115fa57610100808354040283529160200191611625565b820191906000526020600020905b81548152906001019060200180831161160857829003601f168201915b50505050600483015460059093015491929160ff16905086565b6060600c80546104229061294e565b6001600160a01b03918216600090815260056020908152604080832093909416825291909152205460ff1690565b33611685611500565b6001600160a01b0316146116ab5760405162461bcd60e51b815260040161050d9061280d565b6001600160a01b0381166117105760405162461bcd60e51b815260206004820152602660248201527f4f776e61626c653a206e6577206f776e657220697320746865207a65726f206160448201526564647265737360d01b606482015260840161050d565b610ad681611bbb565b6060600b80546104229061294e565b6000908152600260205260409020546001600160a01b0316151590565b600081815260046020526040902080546001600160a01b0319166001600160a01b038416908117909155819061177a826110f4565b6001600160a01b03167f8c5be1e5ebec7d5bd14f71427d1e84f3dd0314c0f7b2291e5b200ac8c7c3b92560405160405180910390a45050565b60006117be82611728565b61181f5760405162461bcd60e51b815260206004820152602c60248201527f4552433732313a206f70657261746f7220717565727920666f72206e6f6e657860448201526b34b9ba32b73a103a37b5b2b760a11b606482015260840161050d565b600061182a836110f4565b9050806001600160a01b0316846001600160a01b031614806118515750611851818561164e565b806118755750836001600160a01b031661186a846104a5565b6001600160a01b0316145b949350505050565b826001600160a01b0316611890826110f4565b6001600160a01b0316146118f45760405162461bcd60e51b815260206004820152602560248201527f4552433732313a207472616e736665722066726f6d20696e636f72726563742060448201526437bbb732b960d91b606482015260840161050d565b6001600160a01b0382166119565760405162461bcd60e51b8152602060048201526024808201527f4552433732313a207472616e7366657220746f20746865207a65726f206164646044820152637265737360e01b606482015260840161050d565b611961600082611745565b6001600160a01b038316600090815260036020526040812080546001929061198a90849061290b565b90915550506001600160a01b03821660009081526003602052604081208054600192906119b89084906128df565b909155505060008181526002602052604080822080546001600160a01b0319166001600160a01b038681169182179092559151849391871691600080516020612a1983398151915291a4505050565b610ad681611e7a565b6001600160a01b038216611a665760405162461bcd60e51b815260206004820181905260248201527f4552433732313a206d696e7420746f20746865207a65726f2061646472657373604482015260640161050d565b611a6f81611728565b15611abb5760405162461bcd60e51b815260206004820152601c60248201527b115490cdcc8c4e881d1bdad95b88185b1c9958591e481b5a5b9d195960221b604482015260640161050d565b6001600160a01b0382166000908152600360205260408120805460019290611ae49084906128df565b909155505060008181526002602052604080822080546001600160a01b0319166001600160a01b0386169081179091559051839290600080516020612a19833981519152908290a45050565b611b3982611728565b611b9c5760405162461bcd60e51b815260206004820152602e60248201527f45524337323155524953746f726167653a2055524920736574206f66206e6f6e60448201526d32bc34b9ba32b73a103a37b5b2b760911b606482015260840161050d565b6000828152600660209081526040909120825161063e92840190612275565b600880546001600160a01b038381166001600160a01b0319831681179093556040519116919082907f8be0079c531659141344cd1fd0a4f28419497f9722a3daafe3b4186f6b6457e090600090a35050565b816001600160a01b0316836001600160a01b03161415611c6b5760405162461bcd60e51b815260206004820152601960248201527822a9219b99189d1030b8383937bb32903a379031b0b63632b960391b604482015260640161050d565b6001600160a01b03838116600081815260056020908152604080832094871680845294825291829020805460ff191686151590811790915591519182527f17307eab39ab6107e8899845ad3d59bd9653f200f220920489ca2b5937696c31910160405180910390a3505050565b611ce384848461187d565b611cef84848484611eba565b61155f5760405162461bcd60e51b815260040161050d906127bb565b6060611d1682611728565b611d7c5760405162461bcd60e51b815260206004820152603160248201527f45524337323155524953746f726167653a2055524920717565727920666f72206044820152703737b732bc34b9ba32b73a103a37b5b2b760791b606482015260840161050d565b60008281526006602052604081208054611d959061294e565b80601f0160208091040260200160405190810160405280929190818152602001828054611dc19061294e565b8015611e0e5780601f10611de357610100808354040283529160200191611e0e565b820191906000526020600020905b815481529060010190602001808311611df157829003601f168201915b505050505090506000611e2c60408051602081019091526000815290565b9050805160001415611e3f575092915050565b815115611e71578082604051602001611e59929190612654565b60405160208183030381529060405292505050919050565b61187584611fc7565b611e838161209f565b60008181526006602052604090208054611e9c9061294e565b159050610ad6576000818152600660205260408120610ad6916122f9565b60006001600160a01b0384163b15611fbc57604051630a85bd0160e11b81526001600160a01b0385169063150b7a0290611efe9033908990889088906004016126bb565b602060405180830381600087803b158015611f1857600080fd5b505af1925050508015611f48575060408051601f3d908101601f19168201909252611f459181019061256b565b60015b611fa2573d808015611f76576040519150601f19603f3d011682016040523d82523d6000602084013e611f7b565b606091505b508051611f9a5760405162461bcd60e51b815260040161050d906127bb565b805181602001fd5b6001600160e01b031916630a85bd0160e11b149050611875565b506001949350505050565b6060611fd282611728565b6120365760405162461bcd60e51b815260206004820152602f60248201527f4552433732314d657461646174613a2055524920717565727920666f72206e6f60448201526e3732bc34b9ba32b73a103a37b5b2b760891b606482015260840161050d565b600061204d60408051602081019091526000815290565b9050600081511161206d5760405180602001604052806000815250612098565b8061207784612128565b604051602001612088929190612654565b6040516020818303038152906040525b9392505050565b60006120aa826110f4565b90506120b7600083611745565b6001600160a01b03811660009081526003602052604081208054600192906120e090849061290b565b909155505060008281526002602052604080822080546001600160a01b0319169055518391906001600160a01b03841690600080516020612a19833981519152908390a45050565b60608161214c5750506040805180820190915260018152600360fc1b602082015290565b8160005b8115612176578061216081612983565b915061216f9050600a836128f7565b9150612150565b6000816001600160401b0381111561219e57634e487b7160e01b600052604160045260246000fd5b6040519080825280601f01601f1916602001820160405280156121c8576020820181803683370190505b5090505b8415611875576121dd60018361290b565b91506121ea600a8661299e565b6121f59060306128df565b60f81b81838151811061221857634e487b7160e01b600052603260045260246000fd5b60200101906001600160f81b031916908160001a90535061223a600a866128f7565b94506121cc565b6040805160c0810182526000808252602082018190529181018290526060808201526080810182905260a081019190915290565b8280546122819061294e565b90600052602060002090601f0160209004810192826122a357600085556122e9565b82601f106122bc57805160ff19168380011785556122e9565b828001600101855582156122e9579182015b828111156122e95782518255916020019190600101906122ce565b506122f592915061232f565b5090565b5080546123059061294e565b6000825580601f10612315575050565b601f016020900490600052602060002090810190610ad691905b5b808211156122f55760008155600101612330565b60006001600160401b038084111561235e5761235e6129de565b604051601f8501601f19908116603f01168101908282118183101715612386576123866129de565b8160405280935085815286868601111561239f57600080fd5b858560208301376000602087830101525050509392505050565b80356001600160a01b03811681146123d057600080fd5b919050565b6000602082840312156123e6578081fd5b612098826123b9565b60008060408385031215612401578081fd5b61240a836123b9565b9150612418602084016123b9565b90509250929050565b600080600060608486031215612435578081fd5b61243e846123b9565b925061244c602085016123b9565b9150604084013590509250925092565b60008060008060808587031215612471578081fd5b61247a856123b9565b9350612488602086016123b9565b92506040850135915060608501356001600160401b038111156124a9578182fd5b8501601f810187136124b9578182fd5b6124c887823560208401612344565b91505092959194509250565b600080604083850312156124e6578182fd5b6124ef836123b9565b915060208301356124ff816129f4565b809150509250929050565b6000806040838503121561251c578182fd5b612525836123b9565b946020939093013593505050565b600060208284031215612544578081fd5b8151612098816129f4565b600060208284031215612560578081fd5b813561209881612a02565b60006020828403121561257c578081fd5b815161209881612a02565b60008060408385031215612599578182fd5b82356001600160401b038111156125ae578283fd5b8301601f810185136125be578283fd5b6125cd85823560208401612344565b95602094909401359450505050565b6000602082840312156125ed578081fd5b5035919050565b600060208284031215612605578081fd5b5051919050565b60008151808452612624816020860160208601612922565b601f01601f19169290920160200192915050565b6000825161264a818460208701612922565b9190910192915050565b60008351612666818460208801612922565b83519083019061267a818360208801612922565b01949350505050565b6001600160a01b0391909116815260200190565b6001600160a01b039384168152919092166020820152604081019190915260600190565b6001600160a01b03858116825284166020820152604081018390526080606082018190526000906126ee9083018461260c565b9695505050505050565b60006020808301818452808551808352604092508286019150828160051b870101848801865b8381101561279a57888303603f19018552815180518452878101516001600160a01b039081168986015287820151168785015260608082015160c0828701819052919061276d8388018261260c565b6080858101519089015260a09485015115159490970193909352505050938601939086019060010161271e565b509098975050505050505050565b602081526000612098602083018461260c565b60208082526032908201527f4552433732313a207472616e7366657220746f206e6f6e20455243373231526560408201527131b2b4bb32b91034b6b83632b6b2b73a32b960711b606082015260800190565b6020808252818101527f4f776e61626c653a2063616c6c6572206973206e6f7420746865206f776e6572604082015260600190565b60208082526031908201527f4552433732313a207472616e736665722063616c6c6572206973206e6f74206f6040820152701ddb995c881b9bdc88185c1c1c9bdd9959607a1b606082015260800190565b8681526001600160a01b0386811660208301528516604082015260c0606082018190526000906128c59083018661260c565b60808301949094525090151560a090910152949350505050565b600082198211156128f2576128f26129b2565b500190565b600082612906576129066129c8565b500490565b60008282101561291d5761291d6129b2565b500390565b60005b8381101561293d578181015183820152602001612925565b8381111561155f5750506000910152565b600181811c9082168061296257607f821691505b60208210811415610d7257634e487b7160e01b600052602260045260246000fd5b6000600019821415612997576129976129b2565b5060010190565b6000826129ad576129ad6129c8565b500690565b634e487b7160e01b600052601160045260246000fd5b634e487b7160e01b600052601260045260246000fd5b634e487b7160e01b600052604160045260246000fd5b8015158114610ad657600080fd5b6001600160e01b031981168114610ad657600080fdfeddf252ad1be2c89b69c2b068fc378daa952ba7f163c4a11628f55a4df523b3efa2646970667358221220e38c5939afe9f5690711037c0e632d44b436f7bb5c578dd2349ec23287347a3864736f6c63430008040033",
  "linkReferences": {},
  "deployedLinkReferences": {}
}