{
  "_format": "hh-sol-artifact-1",
  "contractName": "TestToken",
  "sourceName": "contracts/TestToken.sol",
  "abi": [
    {
      "inputs": [],
      "stateMutability": "nonpayable",
      "type": "constructor"
    },
    {
      "anonymous": false,
      "inputs": [
        {
          "indexed": true,
          "internalType": "address",
          "name": "owner",
          "type": "address"
        },
        {
          "indexed": true,
          "internalType": "address",
          "name": "spender",
          "type": "address"
        },
        {
          "indexed": false,
          "internalType": "uint256",
          "name": "value",
          "type": "uint256"
        }
      ],
      "name": "Approval",
      "type": "event"
    },
    {
      "anonymous": false,
      "inputs": [
        {
          "indexed": true,
          "internalType": "address",
          "name": "from",
          "type": "address"
        },
        {
          "indexed": false,
          "internalType": "uint256",
          "name": "value",
          "type": "uint256"
        }
      ],
      "name": "Burn",
      "type": "event"
    },
    {
      "anonymous": false,
      "inputs": [
        {
          "indexed": true,
          "internalType": "address",
          "name": "previousOwner",
          "type": "address"
        },
        {
          "indexed": true,
          "internalType": "address",
          "name": "newOwner",
          "type": "address"
        }
      ],
      "name": "OwnershipTransferred",
      "type": "event"
    },
    {
      "anonymous": false,
      "inputs": [
        {
          "indexed": true,
          "internalType": "address",
          "name": "from",
          "type": "address"
        },
        {
          "indexed": true,
          "internalType": "address",
          "name": "to",
          "type": "address"
        },
        {
          "indexed": false,
          "internalType": "uint256",
          "name": "value",
          "type": "uint256"
        }
      ],
      "name": "Transfer",
      "type": "event"
    },
    {
      "inputs": [],
      "name": "BURN_ADDRESS",
      "outputs": [
        {
          "internalType": "address",
          "name": "",
          "type": "address"
        }
      ],
      "stateMutability": "view",
      "type": "function"
    },
    {
      "inputs": [
        {
          "internalType": "address",
          "name": "owner",
          "type": "address"
        },
        {
          "internalType": "address",
          "name": "delegate",
          "type": "address"
        }
      ],
      "name": "allowance",
      "outputs": [
        {
          "internalType": "uint256",
          "name": "",
          "type": "uint256"
        }
      ],
      "stateMutability": "view",
      "type": "function"
    },
    {
      "inputs": [
        {
          "internalType": "address",
          "name": "delegate",
          "type": "address"
        },
        {
          "internalType": "uint256",
          "name": "_value",
          "type": "uint256"
        }
      ],
      "name": "approve",
      "outputs": [
        {
          "internalType": "bool",
          "name": "success",
          "type": "bool"
        }
      ],
      "stateMutability": "nonpayable",
      "type": "function"
    },
    {
      "inputs": [
        {
          "internalType": "address",
          "name": "account",
          "type": "address"
        }
      ],
      "name": "balanceOf",
      "outputs": [
        {
          "internalType": "uint256",
          "name": "",
          "type": "uint256"
        }
      ],
      "stateMutability": "view",
      "type": "function"
    },
    {
      "inputs": [
        {
          "internalType": "uint256",
          "name": "_value",
          "type": "uint256"
        }
      ],
      "name": "burn",
      "outputs": [],
      "stateMutability": "nonpayable",
      "type": "function"
    },
    {
      "inputs": [],
      "name": "decimals",
      "outputs": [
        {
          "internalType": "uint256",
          "name": "",
          "type": "uint256"
        }
      ],
      "stateMutability": "view",
      "type": "function"
    },
    {
      "inputs": [],
      "name": "getOwner",
      "outputs": [
        {
          "internalType": "address",
          "name": "",
          "type": "address"
        }
      ],
      "stateMutability": "view",
      "type": "function"
    },
    {
      "inputs": [],
      "name": "name",
      "outputs": [
        {
          "internalType": "string",
          "name": "",
          "type": "string"
        }
      ],
      "stateMutability": "view",
      "type": "function"
    },
    {
      "inputs": [],
      "name": "symbol",
      "outputs": [
        {
          "internalType": "string",
          "name": "",
          "type": "string"
        }
      ],
      "stateMutability": "view",
      "type": "function"
    },
    {
      "inputs": [],
      "name": "totalSupply",
      "outputs": [
        {
          "internalType": "uint256",
          "name": "",
          "type": "uint256"
        }
      ],
      "stateMutability": "view",
      "type": "function"
    },
    {
      "inputs": [
        {
          "internalType": "address",
          "name": "_to",
          "type": "address"
        },
        {
          "internalType": "uint256",
          "name": "_value",
          "type": "uint256"
        }
      ],
      "name": "transfer",
      "outputs": [
        {
          "internalType": "bool",
          "name": "success",
          "type": "bool"
        }
      ],
      "stateMutability": "nonpayable",
      "type": "function"
    },
    {
      "inputs": [
        {
          "internalType": "address",
          "name": "owner",
          "type": "address"
        },
        {
          "internalType": "address",
          "name": "buyer",
          "type": "address"
        },
        {
          "internalType": "uint256",
          "name": "_value",
          "type": "uint256"
        }
      ],
      "name": "transferFrom",
      "outputs": [
        {
          "internalType": "bool",
          "name": "success",
          "type": "bool"
        }
      ],
      "stateMutability": "nonpayable",
      "type": "function"
    },
    {
      "inputs": [
        {
          "internalType": "address",
          "name": "newOwner",
          "type": "address"
        }
      ],
      "name": "transferOwnership",
      "outputs": [],
      "stateMutability": "nonpayable",
      "type": "function"
    }
  ],
  "bytecode": "0x608060405234801561001057600080fd5b50604080518082019091526009808252682a32b9ba2a37b5b2b760b91b6020909201918252610041916000916100d6565b5060408051808201909152600280825261151560f21b602090920191825261006b916001916100d6565b50601260025569021e19e0c9bab240000060038190553360008181526005602052604080822093909355600480546001600160a01b0319168317905591519091907f8be0079c531659141344cd1fd0a4f28419497f9722a3daafe3b4186f6b6457e0908290a36101aa565b8280546100e29061016f565b90600052602060002090601f016020900481019282610104576000855561014a565b82601f1061011d57805160ff191683800117855561014a565b8280016001018555821561014a579182015b8281111561014a57825182559160200191906001019061012f565b5061015692915061015a565b5090565b5b80821115610156576000815560010161015b565b600181811c9082168061018357607f821691505b602082108114156101a457634e487b7160e01b600052602260045260246000fd5b50919050565b61095a806101b96000396000f3fe608060405234801561001057600080fd5b50600436106100af5760003560e01c806306fdde03146100b4578063095ea7b3146100d257806318160ddd146100f557806323b872dd14610107578063313ce5671461011a57806342966c681461012257806370a0823114610137578063893d20e81461016057806395d89b4114610180578063a9059cbb14610188578063dd62ed3e1461019b578063f2fde38b146101d4578063fccc2813146101e7575b600080fd5b6100bc6101f0565b6040516100c991906107ee565b60405180910390f35b6100e56100e03660046107ad565b610282565b60405190151581526020016100c9565b6003545b6040519081526020016100c9565b6100e5610115366004610772565b6102ee565b6002546100f9565b6101356101303660046107d6565b610429565b005b6100f9610145366004610726565b6001600160a01b031660009081526005602052604090205490565b6101686104d4565b6040516001600160a01b0390911681526020016100c9565b6100bc6104e3565b6100e56101963660046107ad565b6104f2565b6100f96101a9366004610740565b6001600160a01b03918216600090815260066020908152604080832093909416825291909152205490565b6101356101e2366004610726565b6105ca565b61016861dead81565b6060600080546101ff906108b3565b80601f016020809104026020016040519081016040528092919081815260200182805461022b906108b3565b80156102785780601f1061024d57610100808354040283529160200191610278565b820191906000526020600020905b81548152906001019060200180831161025b57829003601f168201915b5050505050905090565b3360008181526006602090815260408083206001600160a01b038716808552925280832085905551919290917f8c5be1e5ebec7d5bd14f71427d1e84f3dd0314c0f7b2291e5b200ac8c7c3b925906102dd9086815260200190565b60405180910390a350600192915050565b6001600160a01b03831660009081526005602052604081205482111561031357600080fd5b6001600160a01b038416600090815260066020908152604080832033845290915290205482111561034357600080fd5b6001600160a01b0384166000908152600560205260409020546103669083610624565b6001600160a01b0380861660009081526005602052604080822093909355908516815220546103959083610637565b6001600160a01b0380851660009081526005602090815260408083209490945591871681526006825282812033825290915220546103d39083610624565b6001600160a01b0385811660008181526006602090815260408083203384528252918290209490945551858152918616929091600080516020610905833981519152910160405180910390a35060019392505050565b6004546001600160a01b031633148061045a57506104456104d4565b6001600160a01b0316336001600160a01b0316145b61047f5760405162461bcd60e51b815260040161047690610841565b60405180910390fd5b61048b61dead826104f2565b506003546104999082610624565b60035560405181815233907fcc16f5dbb4873280815c1ee09dbd06736cffcc184412cf7a71a0fdb75d397ca59060200160405180910390a250565b6004546001600160a01b031690565b6060600180546101ff906108b3565b336000908152600560205260408120548211156105455760405162461bcd60e51b81526020600482015260116024820152704e6f7420656e6f75676820746f6b656e7360781b6044820152606401610476565b3360009081526005602052604090205461055f9083610624565b33600090815260056020526040808220929092556001600160a01b0385168152205461058b9083610637565b6001600160a01b038416600081815260056020526040908190209290925590513390600080516020610905833981519152906102dd9086815260200190565b6004546001600160a01b03163314806105fb57506105e66104d4565b6001600160a01b0316336001600160a01b0316145b6106175760405162461bcd60e51b815260040161047690610841565b61062081610643565b5050565b6000610630828461089c565b9392505050565b60006106308284610884565b60006001600160a01b0382166106aa5760405162461bcd60e51b815260206004820152602660248201527f4f776e61626c653a206e6577206f776e657220697320746865207a65726f206160448201526564647265737360d01b6064820152608401610476565b6004546040516001600160a01b038085169216907f8be0079c531659141344cd1fd0a4f28419497f9722a3daafe3b4186f6b6457e090600090a350600480546001600160a01b0319166001600160a01b0392909216919091179055600190565b80356001600160a01b038116811461072157600080fd5b919050565b600060208284031215610737578081fd5b6106308261070a565b60008060408385031215610752578081fd5b61075b8361070a565b91506107696020840161070a565b90509250929050565b600080600060608486031215610786578081fd5b61078f8461070a565b925061079d6020850161070a565b9150604084013590509250925092565b600080604083850312156107bf578182fd5b6107c88361070a565b946020939093013593505050565b6000602082840312156107e7578081fd5b5035919050565b6000602080835283518082850152825b8181101561081a578581018301518582016040015282016107fe565b8181111561082b5783604083870101525b50601f01601f1916929092016040019392505050565b60208082526023908201527f446966696e65733a2063616c6c6572206973206e6f7420746865206f706572616040820152623a37b960e91b606082015260800190565b60008219821115610897576108976108ee565b500190565b6000828210156108ae576108ae6108ee565b500390565b600181811c908216806108c757607f821691505b602082108114156108e857634e487b7160e01b600052602260045260246000fd5b50919050565b634e487b7160e01b600052601160045260246000fdfeddf252ad1be2c89b69c2b068fc378daa952ba7f163c4a11628f55a4df523b3efa2646970667358221220d102b18cf233345215b68a41b1162e8b408ec746791185da31a1fd463bc27c3064736f6c63430008040033",
  "linkReferences": {},
  "deployedLinkReferences": {}
}